{
  "contractName": "Animal",
  "abi": [
    {
      "anonymous": false,
      "inputs": [
        {
          "indexed": true,
          "internalType": "address",
          "name": "account",
          "type": "address"
        }
      ],
      "name": "AddedToWhitelist",
      "type": "event"
    },
    {
      "anonymous": false,
      "inputs": [
        {
          "indexed": true,
          "internalType": "address",
          "name": "owner",
          "type": "address"
        },
        {
          "indexed": true,
          "internalType": "address",
          "name": "approved",
          "type": "address"
        },
        {
          "indexed": true,
          "internalType": "uint256",
          "name": "tokenId",
          "type": "uint256"
        }
      ],
      "name": "Approval",
      "type": "event"
    },
    {
      "anonymous": false,
      "inputs": [
        {
          "indexed": true,
          "internalType": "address",
          "name": "owner",
          "type": "address"
        },
        {
          "indexed": true,
          "internalType": "address",
          "name": "operator",
          "type": "address"
        },
        {
          "indexed": false,
          "internalType": "bool",
          "name": "approved",
          "type": "bool"
        }
      ],
      "name": "ApprovalForAll",
      "type": "event"
    },
    {
      "anonymous": false,
      "inputs": [
        {
          "indexed": false,
          "internalType": "uint256",
          "name": "Id1",
          "type": "uint256"
        },
        {
          "indexed": false,
          "internalType": "uint256",
          "name": "Id2",
          "type": "uint256"
        }
      ],
      "name": "BreedAnimal",
      "type": "event"
    },
    {
      "anonymous": false,
      "inputs": [
        {
          "indexed": false,
          "internalType": "uint256",
          "name": "Id",
          "type": "uint256"
        },
        {
          "indexed": false,
          "internalType": "string",
          "name": "_specie",
          "type": "string"
        },
        {
          "indexed": false,
          "internalType": "string",
          "name": "_name",
          "type": "string"
        },
        {
          "indexed": false,
          "internalType": "uint256",
          "name": "_age",
          "type": "uint256"
        },
        {
          "indexed": false,
          "internalType": "uint256",
          "name": "_iDparent1",
          "type": "uint256"
        },
        {
          "indexed": false,
          "internalType": "uint256",
          "name": "_iDparent2",
          "type": "uint256"
        },
        {
          "indexed": false,
          "internalType": "string",
          "name": "_color",
          "type": "string"
        },
        {
          "indexed": false,
          "internalType": "bool",
          "name": "_fight",
          "type": "bool"
        },
        {
          "indexed": false,
          "internalType": "uint256",
          "name": "_fightPrice",
          "type": "uint256"
        }
      ],
      "name": "DeadAnimal",
      "type": "event"
    },
    {
      "anonymous": false,
      "inputs": [
        {
          "indexed": false,
          "internalType": "uint256",
          "name": "Id",
          "type": "uint256"
        },
        {
          "indexed": false,
          "internalType": "string",
          "name": "_specie",
          "type": "string"
        },
        {
          "indexed": false,
          "internalType": "string",
          "name": "_name",
          "type": "string"
        },
        {
          "indexed": false,
          "internalType": "uint256",
          "name": "_age",
          "type": "uint256"
        },
        {
          "indexed": false,
          "internalType": "uint256",
          "name": "_iDparent1",
          "type": "uint256"
        },
        {
          "indexed": false,
          "internalType": "uint256",
          "name": "_iDparent2",
          "type": "uint256"
        },
        {
          "indexed": false,
          "internalType": "string",
          "name": "_color",
          "type": "string"
        },
        {
          "indexed": false,
          "internalType": "bool",
          "name": "_fight",
          "type": "bool"
        },
        {
          "indexed": false,
          "internalType": "uint256",
          "name": "_fightPrice",
          "type": "uint256"
        }
      ],
      "name": "NewAnimal",
      "type": "event"
    },
    {
      "anonymous": false,
      "inputs": [
        {
          "indexed": true,
          "internalType": "address",
          "name": "previousOwner",
          "type": "address"
        },
        {
          "indexed": true,
          "internalType": "address",
          "name": "newOwner",
          "type": "address"
        }
      ],
      "name": "OwnershipTransferred",
      "type": "event"
    },
    {
      "anonymous": false,
      "inputs": [
        {
          "indexed": true,
          "internalType": "address",
          "name": "account",
          "type": "address"
        }
      ],
      "name": "RemovedFromWhitelist",
      "type": "event"
    },
    {
      "anonymous": false,
      "inputs": [
        {
          "indexed": true,
          "internalType": "address",
          "name": "from",
          "type": "address"
        },
        {
          "indexed": true,
          "internalType": "address",
          "name": "to",
          "type": "address"
        },
        {
          "indexed": true,
          "internalType": "uint256",
          "name": "tokenId",
          "type": "uint256"
        }
      ],
      "name": "Transfer",
      "type": "event"
    },
    {
      "anonymous": false,
      "inputs": [
        {
          "indexed": false,
          "internalType": "uint256",
          "name": "IdAuction",
          "type": "uint256"
        }
      ],
      "name": "addAuction",
      "type": "event"
    },
    {
      "inputs": [
        {
          "internalType": "uint256",
          "name": "",
          "type": "uint256"
        }
      ],
      "name": "Owners",
      "outputs": [
        {
          "internalType": "address",
          "name": "",
          "type": "address"
        }
      ],
      "stateMutability": "view",
      "type": "function",
      "constant": true
    },
    {
      "inputs": [
        {
          "internalType": "uint256",
          "name": "tokenId",
          "type": "uint256"
        }
      ],
      "name": "_burn",
      "outputs": [],
      "stateMutability": "nonpayable",
      "type": "function"
    },
    {
      "inputs": [
        {
          "internalType": "address",
          "name": "to",
          "type": "address"
        },
        {
          "internalType": "uint256",
          "name": "tokenId",
          "type": "uint256"
        }
      ],
      "name": "_safeMint",
      "outputs": [],
      "stateMutability": "nonpayable",
      "type": "function"
    },
    {
      "inputs": [
        {
          "internalType": "uint256",
          "name": "",
          "type": "uint256"
        }
      ],
      "name": "animals",
      "outputs": [
        {
          "internalType": "string",
          "name": "specie",
          "type": "string"
        },
        {
          "internalType": "string",
          "name": "name",
          "type": "string"
        },
        {
          "internalType": "uint256",
          "name": "age",
          "type": "uint256"
        },
        {
          "internalType": "uint256",
          "name": "iDparent1",
          "type": "uint256"
        },
        {
          "internalType": "uint256",
          "name": "iDparent2",
          "type": "uint256"
        },
        {
          "internalType": "string",
          "name": "color",
          "type": "string"
        },
        {
          "internalType": "bool",
          "name": "fight",
          "type": "bool"
        },
        {
          "internalType": "uint256",
          "name": "fightPrice",
          "type": "uint256"
        }
      ],
      "stateMutability": "view",
      "type": "function",
      "constant": true
    },
    {
      "inputs": [
        {
          "internalType": "address",
          "name": "to",
          "type": "address"
        },
        {
          "internalType": "uint256",
          "name": "tokenId",
          "type": "uint256"
        }
      ],
      "name": "approve",
      "outputs": [],
      "stateMutability": "nonpayable",
      "type": "function"
    },
    {
      "inputs": [
        {
          "internalType": "uint256",
          "name": "",
          "type": "uint256"
        }
      ],
      "name": "auctions",
      "outputs": [
        {
          "internalType": "uint256",
          "name": "Idmarketplace",
          "type": "uint256"
        },
        {
          "internalType": "uint256",
          "name": "time_start",
          "type": "uint256"
        },
        {
          "internalType": "uint256",
          "name": "IDanimal",
          "type": "uint256"
        },
        {
          "internalType": "uint256",
          "name": "price",
          "type": "uint256"
        },
        {
          "internalType": "string",
          "name": "state",
          "type": "string"
        }
      ],
      "stateMutability": "view",
      "type": "function",
      "constant": true
    },
    {
      "inputs": [
        {
          "internalType": "address",
          "name": "owner",
          "type": "address"
        }
      ],
      "name": "balanceOf",
      "outputs": [
        {
          "internalType": "uint256",
          "name": "",
          "type": "uint256"
        }
      ],
      "stateMutability": "view",
      "type": "function",
      "constant": true
    },
    {
      "inputs": [
        {
          "internalType": "uint256",
          "name": "tokenId",
          "type": "uint256"
        }
      ],
      "name": "getApproved",
      "outputs": [
        {
          "internalType": "address",
          "name": "",
          "type": "address"
        }
      ],
      "stateMutability": "view",
      "type": "function",
      "constant": true
    },
    {
      "inputs": [],
      "name": "index_market",
      "outputs": [
        {
          "internalType": "uint256",
          "name": "",
          "type": "uint256"
        }
      ],
      "stateMutability": "view",
      "type": "function",
      "constant": true
    },
    {
      "inputs": [
        {
          "internalType": "address",
          "name": "owner",
          "type": "address"
        },
        {
          "internalType": "address",
          "name": "operator",
          "type": "address"
        }
      ],
      "name": "isApprovedForAll",
      "outputs": [
        {
          "internalType": "bool",
          "name": "",
          "type": "bool"
        }
      ],
      "stateMutability": "view",
      "type": "function",
      "constant": true
    },
    {
      "inputs": [],
      "name": "isOwner",
      "outputs": [
        {
          "internalType": "bool",
          "name": "",
          "type": "bool"
        }
      ],
      "stateMutability": "view",
      "type": "function",
      "constant": true
    },
    {
      "inputs": [],
      "name": "owner",
      "outputs": [
        {
          "internalType": "address",
          "name": "",
          "type": "address"
        }
      ],
      "stateMutability": "view",
      "type": "function",
      "constant": true
    },
    {
      "inputs": [
        {
          "internalType": "uint256",
          "name": "tokenId",
          "type": "uint256"
        }
      ],
      "name": "ownerOf",
      "outputs": [
        {
          "internalType": "address",
          "name": "",
          "type": "address"
        }
      ],
      "stateMutability": "view",
      "type": "function",
      "constant": true
    },
    {
      "inputs": [],
      "name": "renounceOwnership",
      "outputs": [],
      "stateMutability": "nonpayable",
      "type": "function"
    },
    {
      "inputs": [
        {
          "internalType": "address",
          "name": "from",
          "type": "address"
        },
        {
          "internalType": "address",
          "name": "to",
          "type": "address"
        },
        {
          "internalType": "uint256",
          "name": "tokenId",
          "type": "uint256"
        }
      ],
      "name": "safeTransferFrom",
      "outputs": [],
      "stateMutability": "nonpayable",
      "type": "function"
    },
    {
      "inputs": [
        {
          "internalType": "address",
          "name": "from",
          "type": "address"
        },
        {
          "internalType": "address",
          "name": "to",
          "type": "address"
        },
        {
          "internalType": "uint256",
          "name": "tokenId",
          "type": "uint256"
        },
        {
          "internalType": "bytes",
          "name": "_data",
          "type": "bytes"
        }
      ],
      "name": "safeTransferFrom",
      "outputs": [],
      "stateMutability": "nonpayable",
      "type": "function"
    },
    {
      "inputs": [
        {
          "internalType": "address",
          "name": "operator",
          "type": "address"
        },
        {
          "internalType": "bool",
          "name": "approved",
          "type": "bool"
        }
      ],
      "name": "setApprovalForAll",
      "outputs": [],
      "stateMutability": "nonpayable",
      "type": "function"
    },
    {
      "inputs": [
        {
          "internalType": "bytes4",
          "name": "interfaceId",
          "type": "bytes4"
        }
      ],
      "name": "supportsInterface",
      "outputs": [
        {
          "internalType": "bool",
          "name": "",
          "type": "bool"
        }
      ],
      "stateMutability": "view",
      "type": "function",
      "constant": true
    },
    {
      "inputs": [
        {
          "internalType": "address",
          "name": "from",
          "type": "address"
        },
        {
          "internalType": "address",
          "name": "to",
          "type": "address"
        },
        {
          "internalType": "uint256",
          "name": "tokenId",
          "type": "uint256"
        }
      ],
      "name": "transferFrom",
      "outputs": [],
      "stateMutability": "nonpayable",
      "type": "function"
    },
    {
      "inputs": [
        {
          "internalType": "address",
          "name": "newOwner",
          "type": "address"
        }
      ],
      "name": "transferOwnership",
      "outputs": [],
      "stateMutability": "nonpayable",
      "type": "function"
    },
    {
      "inputs": [
        {
          "internalType": "address",
          "name": "_address",
          "type": "address"
        }
      ],
      "name": "registerBreeder",
      "outputs": [],
      "stateMutability": "nonpayable",
      "type": "function"
    },
    {
      "inputs": [
        {
          "internalType": "address",
          "name": "_address",
          "type": "address"
        }
      ],
      "name": "removeBreeder",
      "outputs": [],
      "stateMutability": "nonpayable",
      "type": "function"
    },
    {
      "inputs": [
        {
          "internalType": "address",
          "name": "_address",
          "type": "address"
        }
      ],
      "name": "isWhitelisted",
      "outputs": [
        {
          "internalType": "bool",
          "name": "",
          "type": "bool"
        }
      ],
      "stateMutability": "view",
      "type": "function",
      "constant": true
    },
    {
      "inputs": [
        {
          "internalType": "address",
          "name": "_owner",
          "type": "address"
        },
        {
          "internalType": "string",
          "name": "_specie",
          "type": "string"
        },
        {
          "internalType": "uint256",
          "name": "_age",
          "type": "uint256"
        },
        {
          "internalType": "uint256",
          "name": "_iDparent1",
          "type": "uint256"
        },
        {
          "internalType": "uint256",
          "name": "_iDparent2",
          "type": "uint256"
        },
        {
          "internalType": "string",
          "name": "_name",
          "type": "string"
        },
        {
          "internalType": "string",
          "name": "_color",
          "type": "string"
        }
      ],
      "name": "declareAnimal",
      "outputs": [],
      "stateMutability": "nonpayable",
      "type": "function"
    },
    {
      "inputs": [
        {
          "internalType": "uint256",
          "name": "Id_animal",
          "type": "uint256"
        }
      ],
      "name": "deadAnimal",
      "outputs": [],
      "stateMutability": "nonpayable",
      "type": "function"
    },
    {
      "inputs": [
        {
          "internalType": "address",
          "name": "owner1",
          "type": "address"
        },
        {
          "internalType": "address",
          "name": "owner2",
          "type": "address"
        },
        {
          "internalType": "uint256",
          "name": "Id_animal1",
          "type": "uint256"
        },
        {
          "internalType": "uint256",
          "name": "Id_animal2",
          "type": "uint256"
        },
        {
          "internalType": "string",
          "name": "_name",
          "type": "string"
        }
      ],
      "name": "breedAnimal",
      "outputs": [],
      "stateMutability": "nonpayable",
      "type": "function"
    },
    {
      "inputs": [
        {
          "internalType": "address",
          "name": "owner",
          "type": "address"
        },
        {
          "internalType": "uint256",
          "name": "Id_animal",
          "type": "uint256"
        },
        {
          "internalType": "uint256",
          "name": "price",
          "type": "uint256"
        }
      ],
      "name": "proposeToFight",
      "outputs": [],
      "stateMutability": "nonpayable",
      "type": "function"
    },
    {
      "inputs": [
        {
          "internalType": "uint256",
          "name": "Id_animal",
          "type": "uint256"
        },
        {
          "internalType": "uint256",
          "name": "Id_animal2",
          "type": "uint256"
        }
      ],
      "name": "agreeToFight",
      "outputs": [],
      "stateMutability": "nonpayable",
      "type": "function"
    },
    {
      "inputs": [
        {
          "internalType": "address",
          "name": "owner",
          "type": "address"
        },
        {
          "internalType": "uint256",
          "name": "Id_animal",
          "type": "uint256"
        },
        {
          "internalType": "uint256",
          "name": "price",
          "type": "uint256"
        }
      ],
      "name": "createAuction",
      "outputs": [],
      "stateMutability": "nonpayable",
      "type": "function"
    }
  ],
  "bytecode": "0x608060405260006006556000600755620000266301ffc9a760e01b620000f560201b60201c565b6200003e6380ac58cd60e01b620000f560201b60201c565b600062000050620001cd60201b60201c565b905080600560006101000a81548173ffffffffffffffffffffffffffffffffffffffff021916908373ffffffffffffffffffffffffffffffffffffffff1602179055508073ffffffffffffffffffffffffffffffffffffffff16600073ffffffffffffffffffffffffffffffffffffffff167f8be0079c531659141344cd1fd0a4f28419497f9722a3daafe3b4186f6b6457e060405160405180910390a3506200024a565b63ffffffff60e01b817bffffffffffffffffffffffffffffffffffffffffffffffffffffffff1916141562000161576040517f08c379a0000000000000000000000000000000000000000000000000000000008152600401620001589062000217565b60405180910390fd5b6001600080837bffffffffffffffffffffffffffffffffffffffffffffffffffffffff19167bffffffffffffffffffffffffffffffffffffffffffffffffffffffff1916815260200190815260200160002060006101000a81548160ff02191690831515021790555050565b600033905090565b6000620001e4601c8362000239565b91507f4552433136353a20696e76616c696420696e74657266616365206964000000006000830152602082019050919050565b600060208201905081810360008301526200023281620001d5565b9050919050565b600082825260208201905092915050565b614815806200025a6000396000f3fe608060405234801561001057600080fd5b50600436106101cf5760003560e01c80638da5cb5b11610104578063a68a8cea116100a2578063c1722d2b11610071578063c1722d2b1461052f578063e985e9c51461054b578063ec9b6db91461057b578063f2fde38b14610597576101cf565b8063a68a8cea146104bd578063abb94051146104db578063b3e1c718146104f7578063b88d4fde14610513576101cf565b80638f4a97b4116100de5780638f4a97b414610432578063998dd3ca1461044e5780639b1f9e7414610485578063a22cb465146104a1576101cf565b80638da5cb5b146103da5780638ee70519146103f85780638f32d59b14610414576101cf565b8063476fd474116101715780636b6e60c11161014b5780636b6e60c11461035457806370a0823114610370578063715018a6146103a05780638a1ce908146103aa576101cf565b8063476fd474146102d4578063571a26a0146102f05780636352211e14610324576101cf565b806323b872dd116101ad57806323b872dd146102505780633af32abf1461026c57806342842e0e1461029c57806346456c66146102b8576101cf565b806301ffc9a7146101d4578063081812fc14610204578063095ea7b314610234575b600080fd5b6101ee60048036036101e9919081019061350c565b6105b3565b6040516101fb9190614013565b60405180910390f35b61021e6004803603610219919081019061355e565b61061a565b60405161022b9190613fac565b60405180910390f35b61024e60048036036102499190810190613481565b61069f565b005b61026a60048036036102659190810190613206565b6107b7565b005b610286600480360361028191908101906131a1565b610817565b6040516102939190614013565b60405180910390f35b6102b660048036036102b19190810190613206565b61086d565b005b6102d260048036036102cd91908101906131a1565b61088d565b005b6102ee60048036036102e991908101906131a1565b610972565b005b61030a6004803603610305919081019061355e565b610a57565b60405161031b95949392919061454b565b60405180910390f35b61033e6004803603610339919081019061355e565b610b32565b60405161034b9190613fac565b60405180910390f35b61036e6004803603610369919081019061339b565b610be4565b005b61038a600480360361038591908101906131a1565b610f64565b60405161039791906143c3565b60405180910390f35b6103a8611023565b005b6103c460048036036103bf919081019061355e565b61112b565b6040516103d19190613fac565b60405180910390f35b6103e2611167565b6040516103ef9190613fac565b60405180910390f35b610412600480360361040d91908101906132d0565b611191565b005b61041c6114d7565b6040516104299190614013565b60405180910390f35b61044c600480360361044791908101906134bd565b611536565b005b6104686004803603610463919081019061355e565b61167e565b60405161047c989796959493929190614050565b60405180910390f35b61049f600480360361049a919081019061355e565b6118a8565b005b6104bb60048036036104b6919081019061335f565b6118bd565b005b6104c5611a3e565b6040516104d291906143c3565b60405180910390f35b6104f560048036036104f091908101906134bd565b611a44565b005b610511600480360361050c9190810190613481565b611c11565b005b61052d60048036036105289190810190613255565b611c2f565b005b61054960048036036105449190810190613587565b611c91565b005b610565600480360361056091908101906131ca565b611ef5565b6040516105729190614013565b60405180910390f35b6105956004803603610590919081019061355e565b611f89565b005b6105b160048036036105ac91908101906131a1565b61222b565b005b6000806000837bffffffffffffffffffffffffffffffffffffffffffffffffffffffff19167bffffffffffffffffffffffffffffffffffffffffffffffffffffffff1916815260200190815260200160002060009054906101000a900460ff169050919050565b60006106258261227e565b610664576040517f08c379a000000000000000000000000000000000000000000000000000000000815260040161065b906142a3565b60405180910390fd5b6002600083815260200190815260200160002060009054906101000a900473ffffffffffffffffffffffffffffffffffffffff169050919050565b60006106aa82610b32565b90508073ffffffffffffffffffffffffffffffffffffffff168373ffffffffffffffffffffffffffffffffffffffff16141561071b576040517f08c379a000000000000000000000000000000000000000000000000000000000815260040161071290614343565b60405180910390fd5b8073ffffffffffffffffffffffffffffffffffffffff1661073a6122f0565b73ffffffffffffffffffffffffffffffffffffffff1614806107695750610768816107636122f0565b611ef5565b5b6107a8576040517f08c379a000000000000000000000000000000000000000000000000000000000815260040161079f90614203565b60405180910390fd5b6107b283836122f8565b505050565b6107c86107c26122f0565b826123b1565b610807576040517f08c379a00000000000000000000000000000000000000000000000000000000081526004016107fe90614363565b60405180910390fd5b61081283838361248f565b505050565b6000600b60008373ffffffffffffffffffffffffffffffffffffffff1673ffffffffffffffffffffffffffffffffffffffff16815260200190815260200160002060009054906101000a900460ff169050919050565b61088883838360405180602001604052806000815250611c2f565b505050565b6108956114d7565b6108d4576040517f08c379a00000000000000000000000000000000000000000000000000000000081526004016108cb906142e3565b60405180910390fd5b6000600b60008373ffffffffffffffffffffffffffffffffffffffff1673ffffffffffffffffffffffffffffffffffffffff16815260200190815260200160002060006101000a81548160ff0219169083151502179055508073ffffffffffffffffffffffffffffffffffffffff167fcdd2e9b91a56913d370075169cefa1602ba36be5301664f752192bb1709df75760405160405180910390a250565b61097a6114d7565b6109b9576040517f08c379a00000000000000000000000000000000000000000000000000000000081526004016109b0906142e3565b60405180910390fd5b6001600b60008373ffffffffffffffffffffffffffffffffffffffff1673ffffffffffffffffffffffffffffffffffffffff16815260200190815260200160002060006101000a81548160ff0219169083151502179055508073ffffffffffffffffffffffffffffffffffffffff167fa850ae9193f515cbae8d35e8925bd2be26627fc91bce650b8652ed254e9cab0360405160405180910390a250565b600a8181548110610a6457fe5b9060005260206000209060050201600091509050806000015490806001015490806002015490806003015490806004018054600181600116156101000203166002900480601f016020809104026020016040519081016040528092919081815260200182805460018160011615610100020316600290048015610b285780601f10610afd57610100808354040283529160200191610b28565b820191906000526020600020905b815481529060010190602001808311610b0b57829003601f168201915b5050505050905085565b6000806001600084815260200190815260200160002060009054906101000a900473ffffffffffffffffffffffffffffffffffffffff169050600073ffffffffffffffffffffffffffffffffffffffff168173ffffffffffffffffffffffffffffffffffffffff161415610bdb576040517f08c379a0000000000000000000000000000000000000000000000000000000008152600401610bd290614243565b60405180910390fd5b80915050919050565b8673ffffffffffffffffffffffffffffffffffffffff163373ffffffffffffffffffffffffffffffffffffffff1614610c52576040517f08c379a0000000000000000000000000000000000000000000000000000000008152600401610c4990614303565b60405180910390fd5b610c5a612f2d565b60405180610100016040528088815260200184815260200187815260200160008152602001600081526020018381526020016000151581526020016000815250905060088190806001815401808255809150506001900390600052602060002090600802016000909190919091506000820151816000019080519060200190610ce4929190612f74565b506020820151816001019080519060200190610d01929190612f74565b5060408201518160020155606082015181600301556080820151816004015560a0820151816005019080519060200190610d3c929190612f74565b5060c08201518160060160006101000a81548160ff02191690831515021790555060e082015181600701555050600c60003373ffffffffffffffffffffffffffffffffffffffff1673ffffffffffffffffffffffffffffffffffffffff1681526020019081526020016000206000815480929190600101919050555060088190806001815401808255809150506001900390600052602060002090600802016000909190919091506000820151816000019080519060200190610e00929190612f74565b506020820151816001019080519060200190610e1d929190612f74565b5060408201518160020155606082015181600301556080820151816004015560a0820151816005019080519060200190610e58929190612f74565b5060c08201518160060160006101000a81548160ff02191690831515021790555060e08201518160070155505033600d6000600654815260200190815260200160002060006101000a81548173ffffffffffffffffffffffffffffffffffffffff021916908373ffffffffffffffffffffffffffffffffffffffff160217905550600654600e84604051610eec9190613f95565b9081526020016040518091039020819055507f8b20d8bf23a59f3b456f84b1afec170324cf243a72ffc254b5eaf35dd82a84e6600654888589898988600080604051610f40999897969594939291906143de565b60405180910390a16006600081548092919060010191905055505050505050505050565b60008073ffffffffffffffffffffffffffffffffffffffff168273ffffffffffffffffffffffffffffffffffffffff161415610fd5576040517f08c379a0000000000000000000000000000000000000000000000000000000008152600401610fcc90614223565b60405180910390fd5b61101c600360008473ffffffffffffffffffffffffffffffffffffffff1673ffffffffffffffffffffffffffffffffffffffff1681526020019081526020016000206126cb565b9050919050565b61102b6114d7565b61106a576040517f08c379a0000000000000000000000000000000000000000000000000000000008152600401611061906142e3565b60405180910390fd5b600073ffffffffffffffffffffffffffffffffffffffff16600560009054906101000a900473ffffffffffffffffffffffffffffffffffffffff1673ffffffffffffffffffffffffffffffffffffffff167f8be0079c531659141344cd1fd0a4f28419497f9722a3daafe3b4186f6b6457e060405160405180910390a36000600560006101000a81548173ffffffffffffffffffffffffffffffffffffffff021916908373ffffffffffffffffffffffffffffffffffffffff160217905550565b6009818154811061113857fe5b906000526020600020016000915054906101000a900473ffffffffffffffffffffffffffffffffffffffff1681565b6000600560009054906101000a900473ffffffffffffffffffffffffffffffffffffffff16905090565b61119a33610817565b6111d9576040517f08c379a00000000000000000000000000000000000000000000000000000000081526004016111d090614383565b60405180910390fd5b8473ffffffffffffffffffffffffffffffffffffffff16600d600085815260200190815260200160002060009054906101000a900473ffffffffffffffffffffffffffffffffffffffff1673ffffffffffffffffffffffffffffffffffffffff161461127a576040517f08c379a000000000000000000000000000000000000000000000000000000000815260040161127190614123565b60405180910390fd5b8373ffffffffffffffffffffffffffffffffffffffff16600d600084815260200190815260200160002060009054906101000a900473ffffffffffffffffffffffffffffffffffffffff1673ffffffffffffffffffffffffffffffffffffffff161461131b576040517f08c379a000000000000000000000000000000000000000000000000000000000815260040161131290614103565b60405180910390fd5b7f8a6fde0c0f8077884948daef31fc0b7565d15b1944dbd05612fe54e358bb7a16838360405161134c929190614522565b60405180910390a16114d0856008858154811061136557fe5b90600052602060002090600802016000018054600181600116156101000203166002900480601f01602080910402602001604051908101604052809291908181526020018280546001816001161561010002031660029004801561140a5780601f106113df5761010080835404028352916020019161140a565b820191906000526020600020905b8154815290600101906020018083116113ed57829003601f168201915b5050505050600086868660088a8154811061142157fe5b90600052602060002090600802016005018054600181600116156101000203166002900480601f0160208091040260200160405190810160405280929190818152602001828054600181600116156101000203166002900480156114c65780601f1061149b576101008083540402835291602001916114c6565b820191906000526020600020905b8154815290600101906020018083116114a957829003601f168201915b5050505050610be4565b5050505050565b6000600560009054906101000a900473ffffffffffffffffffffffffffffffffffffffff1673ffffffffffffffffffffffffffffffffffffffff1661151a6122f0565b73ffffffffffffffffffffffffffffffffffffffff1614905090565b61153f33610817565b61157e576040517f08c379a000000000000000000000000000000000000000000000000000000000815260040161157590614383565b60405180910390fd5b8273ffffffffffffffffffffffffffffffffffffffff16600d600084815260200190815260200160002060009054906101000a900473ffffffffffffffffffffffffffffffffffffffff1673ffffffffffffffffffffffffffffffffffffffff161461161f576040517f08c379a000000000000000000000000000000000000000000000000000000000815260040161161690614123565b60405180910390fd5b60016008838154811061162e57fe5b906000526020600020906008020160060160006101000a81548160ff021916908315150217905550806008838154811061166457fe5b906000526020600020906008020160070181905550505050565b6008818154811061168b57fe5b9060005260206000209060080201600091509050806000018054600181600116156101000203166002900480601f0160208091040260200160405190810160405280929190818152602001828054600181600116156101000203166002900480156117375780601f1061170c57610100808354040283529160200191611737565b820191906000526020600020905b81548152906001019060200180831161171a57829003601f168201915b505050505090806001018054600181600116156101000203166002900480601f0160208091040260200160405190810160405280929190818152602001828054600181600116156101000203166002900480156117d55780601f106117aa576101008083540402835291602001916117d5565b820191906000526020600020905b8154815290600101906020018083116117b857829003601f168201915b505050505090806002015490806003015490806004015490806005018054600181600116156101000203166002900480601f0160208091040260200160405190810160405280929190818152602001828054600181600116156101000203166002900480156118855780601f1061185a57610100808354040283529160200191611885565b820191906000526020600020905b81548152906001019060200180831161186857829003601f168201915b5050505050908060060160009054906101000a900460ff16908060070154905088565b6118ba6118b482610b32565b826126d9565b50565b6118c56122f0565b73ffffffffffffffffffffffffffffffffffffffff168273ffffffffffffffffffffffffffffffffffffffff161415611933576040517f08c379a000000000000000000000000000000000000000000000000000000000815260040161192a906141c3565b60405180910390fd5b80600460006119406122f0565b73ffffffffffffffffffffffffffffffffffffffff1673ffffffffffffffffffffffffffffffffffffffff16815260200190815260200160002060008473ffffffffffffffffffffffffffffffffffffffff1673ffffffffffffffffffffffffffffffffffffffff16815260200190815260200160002060006101000a81548160ff0219169083151502179055508173ffffffffffffffffffffffffffffffffffffffff166119ed6122f0565b73ffffffffffffffffffffffffffffffffffffffff167f17307eab39ab6107e8899845ad3d59bd9653f200f220920489ca2b5937696c3183604051611a329190614013565b60405180910390a35050565b60075481565b8273ffffffffffffffffffffffffffffffffffffffff16600d600084815260200190815260200160002060009054906101000a900473ffffffffffffffffffffffffffffffffffffffff1673ffffffffffffffffffffffffffffffffffffffff1614611ae5576040517f08c379a0000000000000000000000000000000000000000000000000000000008152600401611adc90614123565b60405180910390fd5b611aed612ff4565b6040518060a0016040528060075481526020014281526020018481526020018381526020016040518060400160405280600b81526020017f496e2070726f67726573730000000000000000000000000000000000000000008152508152509050600a819080600181540180825580915050600190039060005260206000209060050201600090919091909150600082015181600001556020820151816001015560408201518160020155606082015181600301556080820151816004019080519060200190611bbd929190612f74565b5050507fd95bd321173ff68af8efc993fecedf4fcf8e355a66089b27b81405054dc3bb2e600754604051611bf191906143c3565b60405180910390a160076000815480929190600101919050555050505050565b611c2b828260405180602001604052806000815250612860565b5050565b611c40611c3a6122f0565b836123b1565b611c7f576040517f08c379a0000000000000000000000000000000000000000000000000000000008152600401611c7690614363565b60405180910390fd5b611c8b848484846128bb565b50505050565b611c9a33610817565b611cd9576040517f08c379a0000000000000000000000000000000000000000000000000000000008152600401611cd090614383565b60405180910390fd5b6001151560088381548110611cea57fe5b906000526020600020906008020160060160009054906101000a900460ff16151514611d4b576040517f08c379a0000000000000000000000000000000000000000000000000000000008152600401611d4290614263565b60405180910390fd5b6001151560088281548110611d5c57fe5b906000526020600020906008020160060160009054906101000a900460ff16151514611dbd576040517f08c379a0000000000000000000000000000000000000000000000000000000008152600401611db4906142c3565b60405180910390fd5b60088281548110611dca57fe5b90600052602060002090600802016007015460088281548110611de957fe5b90600052602060002090600802016007015414611e3b576040517f08c379a0000000000000000000000000000000000000000000000000000000008152600401611e32906140e3565b60405180910390fd5b600060088381548110611e4a57fe5b906000526020600020906008020160060160006101000a81548160ff021916908315150217905550600060088381548110611e8157fe5b906000526020600020906008020160070181905550600060088281548110611ea557fe5b906000526020600020906008020160060160006101000a81548160ff021916908315150217905550600060088281548110611edc57fe5b9060005260206000209060080201600701819055505050565b6000600460008473ffffffffffffffffffffffffffffffffffffffff1673ffffffffffffffffffffffffffffffffffffffff16815260200190815260200160002060008373ffffffffffffffffffffffffffffffffffffffff1673ffffffffffffffffffffffffffffffffffffffff16815260200190815260200160002060009054906101000a900460ff16905092915050565b6000600d600083815260200190815260200160002060009054906101000a900473ffffffffffffffffffffffffffffffffffffffff169050600c60008273ffffffffffffffffffffffffffffffffffffffff1673ffffffffffffffffffffffffffffffffffffffff16815260200190815260200160002060008154809291906001900391905055506008828154811061201e57fe5b90600052602060002090600802016000808201600061203d9190613023565b60018201600061204d9190613023565b6002820160009055600382016000905560048201600090556005820160006120759190613023565b6006820160006101000a81549060ff0219169055600782016000905550506000600d600084815260200190815260200160002060006101000a81548173ffffffffffffffffffffffffffffffffffffffff021916908373ffffffffffffffffffffffffffffffffffffffff1602179055507fc47e0c8a15e5f0511913b0921a119db62453c10b48d6c69aa3c500c6f26c904e826008848154811061211557fe5b90600052602060002090600802016000016008858154811061213357fe5b90600052602060002090600802016001016008868154811061215157fe5b9060005260206000209060080201600201546008878154811061217057fe5b9060005260206000209060080201600301546008888154811061218f57fe5b906000526020600020906008020160040154600889815481106121ae57fe5b906000526020600020906008020160050160088a815481106121cc57fe5b906000526020600020906008020160060160009054906101000a900460ff1660088b815481106121f857fe5b90600052602060002090600802016007015460405161221f99989796959493929190614480565b60405180910390a15050565b6122336114d7565b612272576040517f08c379a0000000000000000000000000000000000000000000000000000000008152600401612269906142e3565b60405180910390fd5b61227b81612917565b50565b6000806001600084815260200190815260200160002060009054906101000a900473ffffffffffffffffffffffffffffffffffffffff169050600073ffffffffffffffffffffffffffffffffffffffff168173ffffffffffffffffffffffffffffffffffffffff161415915050919050565b600033905090565b816002600083815260200190815260200160002060006101000a81548173ffffffffffffffffffffffffffffffffffffffff021916908373ffffffffffffffffffffffffffffffffffffffff160217905550808273ffffffffffffffffffffffffffffffffffffffff1661236b83610b32565b73ffffffffffffffffffffffffffffffffffffffff167f8c5be1e5ebec7d5bd14f71427d1e84f3dd0314c0f7b2291e5b200ac8c7c3b92560405160405180910390a45050565b60006123bc8261227e565b6123fb576040517f08c379a00000000000000000000000000000000000000000000000000000000081526004016123f2906141e3565b60405180910390fd5b600061240683610b32565b90508073ffffffffffffffffffffffffffffffffffffffff168473ffffffffffffffffffffffffffffffffffffffff16148061247557508373ffffffffffffffffffffffffffffffffffffffff1661245d8461061a565b73ffffffffffffffffffffffffffffffffffffffff16145b8061248657506124858185611ef5565b5b91505092915050565b8273ffffffffffffffffffffffffffffffffffffffff166124af82610b32565b73ffffffffffffffffffffffffffffffffffffffff1614612505576040517f08c379a00000000000000000000000000000000000000000000000000000000081526004016124fc90614323565b60405180910390fd5b600073ffffffffffffffffffffffffffffffffffffffff168273ffffffffffffffffffffffffffffffffffffffff161415612575576040517f08c379a000000000000000000000000000000000000000000000000000000000815260040161256c906141a3565b60405180910390fd5b612580838383612a47565b61258b6000826122f8565b6125d2600360008573ffffffffffffffffffffffffffffffffffffffff1673ffffffffffffffffffffffffffffffffffffffff168152602001908152602001600020612a4c565b612619600360008473ffffffffffffffffffffffffffffffffffffffff1673ffffffffffffffffffffffffffffffffffffffff168152602001908152602001600020612a6f565b816001600083815260200190815260200160002060006101000a81548173ffffffffffffffffffffffffffffffffffffffff021916908373ffffffffffffffffffffffffffffffffffffffff160217905550808273ffffffffffffffffffffffffffffffffffffffff168473ffffffffffffffffffffffffffffffffffffffff167fddf252ad1be2c89b69c2b068fc378daa952ba7f163c4a11628f55a4df523b3ef60405160405180910390a4505050565b600081600001549050919050565b8173ffffffffffffffffffffffffffffffffffffffff166126f982610b32565b73ffffffffffffffffffffffffffffffffffffffff161461274f576040517f08c379a0000000000000000000000000000000000000000000000000000000008152600401612746906143a3565b60405180910390fd5b61275b82600083612a47565b6127666000826122f8565b6127ad600360008473ffffffffffffffffffffffffffffffffffffffff1673ffffffffffffffffffffffffffffffffffffffff168152602001908152602001600020612a4c565b60006001600083815260200190815260200160002060006101000a81548173ffffffffffffffffffffffffffffffffffffffff021916908373ffffffffffffffffffffffffffffffffffffffff16021790555080600073ffffffffffffffffffffffffffffffffffffffff168373ffffffffffffffffffffffffffffffffffffffff167fddf252ad1be2c89b69c2b068fc378daa952ba7f163c4a11628f55a4df523b3ef60405160405180910390a45050565b61286a8383612a85565b6128776000848484612c43565b6128b6576040517f08c379a00000000000000000000000000000000000000000000000000000000081526004016128ad90614143565b60405180910390fd5b505050565b6128c684848461248f565b6128d284848484612c43565b612911576040517f08c379a000000000000000000000000000000000000000000000000000000000815260040161290890614143565b60405180910390fd5b50505050565b600073ffffffffffffffffffffffffffffffffffffffff168173ffffffffffffffffffffffffffffffffffffffff161415612987576040517f08c379a000000000000000000000000000000000000000000000000000000000815260040161297e90614163565b60405180910390fd5b8073ffffffffffffffffffffffffffffffffffffffff16600560009054906101000a900473ffffffffffffffffffffffffffffffffffffffff1673ffffffffffffffffffffffffffffffffffffffff167f8be0079c531659141344cd1fd0a4f28419497f9722a3daafe3b4186f6b6457e060405160405180910390a380600560006101000a81548173ffffffffffffffffffffffffffffffffffffffff021916908373ffffffffffffffffffffffffffffffffffffffff16021790555050565b505050565b612a6460018260000154612e3d90919063ffffffff16565b816000018190555050565b6001816000016000828254019250508190555050565b600073ffffffffffffffffffffffffffffffffffffffff168273ffffffffffffffffffffffffffffffffffffffff161415612af5576040517f08c379a0000000000000000000000000000000000000000000000000000000008152600401612aec90614283565b60405180910390fd5b612afe8161227e565b15612b3e576040517f08c379a0000000000000000000000000000000000000000000000000000000008152600401612b3590614183565b60405180910390fd5b612b4a60008383612a47565b816001600083815260200190815260200160002060006101000a81548173ffffffffffffffffffffffffffffffffffffffff021916908373ffffffffffffffffffffffffffffffffffffffff160217905550612be3600360008473ffffffffffffffffffffffffffffffffffffffff1673ffffffffffffffffffffffffffffffffffffffff168152602001908152602001600020612a6f565b808273ffffffffffffffffffffffffffffffffffffffff16600073ffffffffffffffffffffffffffffffffffffffff167fddf252ad1be2c89b69c2b068fc378daa952ba7f163c4a11628f55a4df523b3ef60405160405180910390a45050565b6000612c648473ffffffffffffffffffffffffffffffffffffffff16612e87565b612c715760019050612e35565b600060608573ffffffffffffffffffffffffffffffffffffffff168673ffffffffffffffffffffffffffffffffffffffff1663150b7a02905060e01b612cb56122f0565b898888604051602401612ccb9493929190613fc7565b604051602081830303815290604052907bffffffffffffffffffffffffffffffffffffffffffffffffffffffff19166020820180517bffffffffffffffffffffffffffffffffffffffffffffffffffffffff8381831617835250505050604051612d359190613f7e565b6000604051808303816000865af19150503d8060008114612d72576040519150601f19603f3d011682016040523d82523d6000602084013e612d77565b606091505b509150915081612dcf57600081511115612d945780518082602001fd5b6040517f08c379a0000000000000000000000000000000000000000000000000000000008152600401612dc690614143565b60405180910390fd5b600081806020019051612de59190810190613535565b905063150b7a0260e01b7bffffffffffffffffffffffffffffffffffffffffffffffffffffffff1916817bffffffffffffffffffffffffffffffffffffffffffffffffffffffff19161493505050505b949350505050565b6000612e7f83836040518060400160405280601e81526020017f536166654d6174683a207375627472616374696f6e206f766572666c6f770000815250612ed2565b905092915050565b60008060007fc5d2460186f7233c927e7db2dcc703c0e500b653ca82273b7bfad8045d85a47060001b9050833f9150808214158015612ec957506000801b8214155b92505050919050565b6000838311158290612f1a576040517f08c379a0000000000000000000000000000000000000000000000000000000008152600401612f11919061402e565b60405180910390fd5b5060008385039050809150509392505050565b604051806101000160405280606081526020016060815260200160008152602001600081526020016000815260200160608152602001600015158152602001600081525090565b828054600181600116156101000203166002900490600052602060002090601f016020900481019282601f10612fb557805160ff1916838001178555612fe3565b82800160010185558215612fe3579182015b82811115612fe2578251825591602001919060010190612fc7565b5b509050612ff0919061306b565b5090565b6040518060a0016040528060008152602001600081526020016000815260200160008152602001606081525090565b50805460018160011615610100020316600290046000825580601f106130495750613068565b601f016020900490600052602060002090810190613067919061306b565b5b50565b61308d91905b80821115613089576000816000905550600101613071565b5090565b90565b60008135905061309f81614783565b92915050565b6000813590506130b48161479a565b92915050565b6000813590506130c9816147b1565b92915050565b6000815190506130de816147b1565b92915050565b600082601f8301126130f557600080fd5b8135613108613103826145d2565b6145a5565b9150808252602083016020830185838301111561312457600080fd5b61312f838284614730565b50505092915050565b600082601f83011261314957600080fd5b813561315c613157826145fe565b6145a5565b9150808252602083016020830185838301111561317857600080fd5b613183838284614730565b50505092915050565b60008135905061319b816147c8565b92915050565b6000602082840312156131b357600080fd5b60006131c184828501613090565b91505092915050565b600080604083850312156131dd57600080fd5b60006131eb85828601613090565b92505060206131fc85828601613090565b9150509250929050565b60008060006060848603121561321b57600080fd5b600061322986828701613090565b935050602061323a86828701613090565b925050604061324b8682870161318c565b9150509250925092565b6000806000806080858703121561326b57600080fd5b600061327987828801613090565b945050602061328a87828801613090565b935050604061329b8782880161318c565b925050606085013567ffffffffffffffff8111156132b857600080fd5b6132c4878288016130e4565b91505092959194509250565b600080600080600060a086880312156132e857600080fd5b60006132f688828901613090565b955050602061330788828901613090565b94505060406133188882890161318c565b93505060606133298882890161318c565b925050608086013567ffffffffffffffff81111561334657600080fd5b61335288828901613138565b9150509295509295909350565b6000806040838503121561337257600080fd5b600061338085828601613090565b9250506020613391858286016130a5565b9150509250929050565b600080600080600080600060e0888a0312156133b657600080fd5b60006133c48a828b01613090565b975050602088013567ffffffffffffffff8111156133e157600080fd5b6133ed8a828b01613138565b96505060406133fe8a828b0161318c565b955050606061340f8a828b0161318c565b94505060806134208a828b0161318c565b93505060a088013567ffffffffffffffff81111561343d57600080fd5b6134498a828b01613138565b92505060c088013567ffffffffffffffff81111561346657600080fd5b6134728a828b01613138565b91505092959891949750929550565b6000806040838503121561349457600080fd5b60006134a285828601613090565b92505060206134b38582860161318c565b9150509250929050565b6000806000606084860312156134d257600080fd5b60006134e086828701613090565b93505060206134f18682870161318c565b92505060406135028682870161318c565b9150509250925092565b60006020828403121561351e57600080fd5b600061352c848285016130ba565b91505092915050565b60006020828403121561354757600080fd5b6000613555848285016130cf565b91505092915050565b60006020828403121561357057600080fd5b600061357e8482850161318c565b91505092915050565b6000806040838503121561359a57600080fd5b60006135a88582860161318c565b92505060206135b98582860161318c565b9150509250929050565b6135cc816146aa565b82525050565b6135db81614698565b82525050565b6135ea816146bc565b82525050565b60006135fb8261463f565b6136058185614660565b935061361581856020860161473f565b61361e81614772565b840191505092915050565b60006136348261463f565b61363e8185614671565b935061364e81856020860161473f565b80840191505092915050565b6136638161471e565b82525050565b600061367482614655565b61367e818561467c565b935061368e81856020860161473f565b61369781614772565b840191505092915050565b60006136ad82614655565b6136b7818561468d565b93506136c781856020860161473f565b80840191505092915050565b60006136de8261464a565b6136e8818561467c565b93506136f881856020860161473f565b61370181614772565b840191505092915050565b600081546001811660008114613729576001811461374f57613793565b607f600283041661373a818761467c565b955060ff198316865260208601935050613793565b6002820461375d818761467c565b95506137688561462a565b60005b8281101561378a5781548189015260018201915060208101905061376b565b80880195505050505b505092915050565b60006137a8601b8361467c565b91507f4e65656420746f20626574207468652073616d6520616d6f756e7400000000006000830152602082019050919050565b60006137e8601e8361467c565b91507f566572696679206966204f776e657220322068617320416e696d616c203200006000830152602082019050919050565b6000613828601e8361467c565b91507f566572696679206966204f776e657220312068617320416e696d616c203100006000830152602082019050919050565b600061386860328361467c565b91507f4552433732313a207472616e7366657220746f206e6f6e20455243373231526560008301527f63656976657220696d706c656d656e74657200000000000000000000000000006020830152604082019050919050565b60006138ce60268361467c565b91507f4f776e61626c653a206e6577206f776e657220697320746865207a65726f206160008301527f64647265737300000000000000000000000000000000000000000000000000006020830152604082019050919050565b6000613934601c8361467c565b91507f4552433732313a20746f6b656e20616c7265616479206d696e746564000000006000830152602082019050919050565b600061397460248361467c565b91507f4552433732313a207472616e7366657220746f20746865207a65726f2061646460008301527f72657373000000000000000000000000000000000000000000000000000000006020830152604082019050919050565b60006139da60198361467c565b91507f4552433732313a20617070726f766520746f2063616c6c6572000000000000006000830152602082019050919050565b6000613a1a602c8361467c565b91507f4552433732313a206f70657261746f7220717565727920666f72206e6f6e657860008301527f697374656e7420746f6b656e00000000000000000000000000000000000000006020830152604082019050919050565b6000613a8060388361467c565b91507f4552433732313a20617070726f76652063616c6c6572206973206e6f74206f7760008301527f6e6572206e6f7220617070726f76656420666f7220616c6c00000000000000006020830152604082019050919050565b6000613ae6602a8361467c565b91507f4552433732313a2062616c616e636520717565727920666f7220746865207a6560008301527f726f2061646472657373000000000000000000000000000000000000000000006020830152604082019050919050565b6000613b4c60298361467c565b91507f4552433732313a206f776e657220717565727920666f72206e6f6e657869737460008301527f656e7420746f6b656e00000000000000000000000000000000000000000000006020830152604082019050919050565b6000613bb260228361467c565b91507f566572696679207468617420666972737420616e696d616c2063616e2066696760008301527f68740000000000000000000000000000000000000000000000000000000000006020830152604082019050919050565b6000613c1860208361467c565b91507f4552433732313a206d696e7420746f20746865207a65726f20616464726573736000830152602082019050919050565b6000613c58602c8361467c565b91507f4552433732313a20617070726f76656420717565727920666f72206e6f6e657860008301527f697374656e7420746f6b656e00000000000000000000000000000000000000006020830152604082019050919050565b6000613cbe60188361467c565b91507f4e65656420746f2062652061626c6520746f20666967687400000000000000006000830152602082019050919050565b6000613cfe60208361467c565b91507f4f776e61626c653a2063616c6c6572206973206e6f7420746865206f776e65726000830152602082019050919050565b6000613d3e60218361467c565b91507f596f7520617265206e6f74206465636c6172696e6720796f757220616e696d6160008301527f6c000000000000000000000000000000000000000000000000000000000000006020830152604082019050919050565b6000613da460298361467c565b91507f4552433732313a207472616e73666572206f6620746f6b656e2074686174206960008301527f73206e6f74206f776e00000000000000000000000000000000000000000000006020830152604082019050919050565b6000613e0a60218361467c565b91507f4552433732313a20617070726f76616c20746f2063757272656e74206f776e6560008301527f72000000000000000000000000000000000000000000000000000000000000006020830152604082019050919050565b6000613e7060318361467c565b91507f4552433732313a207472616e736665722063616c6c6572206973206e6f74206f60008301527f776e6572206e6f7220617070726f7665640000000000000000000000000000006020830152604082019050919050565b6000613ed6601f8361467c565b91507f566572696679206966206974277320696e207468652077686974656c697374006000830152602082019050919050565b6000613f1660258361467c565b91507f4552433732313a206275726e206f6620746f6b656e2074686174206973206e6f60008301527f74206f776e0000000000000000000000000000000000000000000000000000006020830152604082019050919050565b613f7881614714565b82525050565b6000613f8a8284613629565b915081905092915050565b6000613fa182846136a2565b915081905092915050565b6000602082019050613fc160008301846135d2565b92915050565b6000608082019050613fdc60008301876135c3565b613fe960208301866135d2565b613ff66040830185613f6f565b818103606083015261400881846135f0565b905095945050505050565b600060208201905061402860008301846135e1565b92915050565b600060208201905081810360008301526140488184613669565b905092915050565b600061010082019050818103600083015261406b818b6136d3565b9050818103602083015261407f818a6136d3565b905061408e6040830189613f6f565b61409b6060830188613f6f565b6140a86080830187613f6f565b81810360a08301526140ba81866136d3565b90506140c960c08301856135e1565b6140d660e0830184613f6f565b9998505050505050505050565b600060208201905081810360008301526140fc8161379b565b9050919050565b6000602082019050818103600083015261411c816137db565b9050919050565b6000602082019050818103600083015261413c8161381b565b9050919050565b6000602082019050818103600083015261415c8161385b565b9050919050565b6000602082019050818103600083015261417c816138c1565b9050919050565b6000602082019050818103600083015261419c81613927565b9050919050565b600060208201905081810360008301526141bc81613967565b9050919050565b600060208201905081810360008301526141dc816139cd565b9050919050565b600060208201905081810360008301526141fc81613a0d565b9050919050565b6000602082019050818103600083015261421c81613a73565b9050919050565b6000602082019050818103600083015261423c81613ad9565b9050919050565b6000602082019050818103600083015261425c81613b3f565b9050919050565b6000602082019050818103600083015261427c81613ba5565b9050919050565b6000602082019050818103600083015261429c81613c0b565b9050919050565b600060208201905081810360008301526142bc81613c4b565b9050919050565b600060208201905081810360008301526142dc81613cb1565b9050919050565b600060208201905081810360008301526142fc81613cf1565b9050919050565b6000602082019050818103600083015261431c81613d31565b9050919050565b6000602082019050818103600083015261433c81613d97565b9050919050565b6000602082019050818103600083015261435c81613dfd565b9050919050565b6000602082019050818103600083015261437c81613e63565b9050919050565b6000602082019050818103600083015261439c81613ec9565b9050919050565b600060208201905081810360008301526143bc81613f09565b9050919050565b60006020820190506143d86000830184613f6f565b92915050565b6000610120820190506143f4600083018c613f6f565b8181036020830152614406818b613669565b9050818103604083015261441a818a613669565b90506144296060830189613f6f565b6144366080830188613f6f565b61444360a0830187613f6f565b81810360c08301526144558186613669565b905061446460e08301856135e1565b61447261010083018461365a565b9a9950505050505050505050565b600061012082019050614496600083018c613f6f565b81810360208301526144a8818b61370c565b905081810360408301526144bc818a61370c565b90506144cb6060830189613f6f565b6144d86080830188613f6f565b6144e560a0830187613f6f565b81810360c08301526144f7818661370c565b905061450660e08301856135e1565b614514610100830184613f6f565b9a9950505050505050505050565b60006040820190506145376000830185613f6f565b6145446020830184613f6f565b9392505050565b600060a0820190506145606000830188613f6f565b61456d6020830187613f6f565b61457a6040830186613f6f565b6145876060830185613f6f565b818103608083015261459981846136d3565b90509695505050505050565b6000604051905081810181811067ffffffffffffffff821117156145c857600080fd5b8060405250919050565b600067ffffffffffffffff8211156145e957600080fd5b601f19601f8301169050602081019050919050565b600067ffffffffffffffff82111561461557600080fd5b601f19601f8301169050602081019050919050565b60008190508160005260206000209050919050565b600081519050919050565b600081519050919050565b600081519050919050565b600082825260208201905092915050565b600081905092915050565b600082825260208201905092915050565b600081905092915050565b60006146a3826146f4565b9050919050565b60006146b5826146f4565b9050919050565b60008115159050919050565b60007fffffffff0000000000000000000000000000000000000000000000000000000082169050919050565b600073ffffffffffffffffffffffffffffffffffffffff82169050919050565b6000819050919050565b600061472982614714565b9050919050565b82818337600083830152505050565b60005b8381101561475d578082015181840152602081019050614742565b8381111561476c576000848401525b50505050565b6000601f19601f8301169050919050565b61478c81614698565b811461479757600080fd5b50565b6147a3816146bc565b81146147ae57600080fd5b50565b6147ba816146c8565b81146147c557600080fd5b50565b6147d181614714565b81146147dc57600080fd5b5056fea2646970667358221220feadbcc4adeec55572858e4fe212f256bb06114d9dad29c26f7288340567a60464736f6c63430006000033",
  "source": "pragma solidity ^0.6.0;\npragma experimental ABIEncoderV2;\nimport \"./Context.sol\";\nimport \"./IERC721.sol\";\nimport \"./IERC721Receiver.sol\";\nimport \"./SafeMath.sol\";\nimport \"./Address.sol\";\nimport \"./Counters.sol\";\nimport \"./ERC165.sol\";\nimport \"./ERC721.sol\";\nimport \"./Ownable.sol\";\n\n\ncontract Animal is ERC721, Ownable{\n    using SafeMath for uint256;\n\tuint index = 0;\n\tuint public index_market = 0;\n\t\n\tanimal[] public animals;\n    address[] public Owners;\n    auction[] public auctions;\n\t\n\n    struct animal{\n\t\tstring specie;\n\t\tstring name;\n\t\tuint age;\n\t\tuint256 iDparent1;\n\t\tuint256 iDparent2;\n\t\tstring color;\n        bool fight;\n        uint256 fightPrice;\n\t}\n\t\n\tstruct auction{\n        uint256 Idmarketplace;\n        uint time_start;\n        uint256 IDanimal;\n        uint256 price;\n        string state;\n    }\n\n\tevent NewAnimal(uint Id, string _specie, string _name, uint _age, uint256 _iDparent1, uint256 _iDparent2, string _color, bool _fight, uint256 _fightPrice);\n\tevent DeadAnimal(uint Id, string _specie, string _name, uint _age, uint256 _iDparent1, uint256 _iDparent2, string _color, bool _fight, uint256 _fightPrice);\n\tevent BreedAnimal(uint Id1, uint Id2);\n    event addAuction(uint256 IdAuction);\n\tevent AddedToWhitelist(address indexed account);\n    event RemovedFromWhitelist(address indexed account);\n\t\n    mapping(address => bool) whitelist;\n    mapping (address => uint) ownerAnimalCount;\n    mapping (uint => address) animalToOwner;\n    mapping (string => uint) nameToId;\n\t\n\t\n\tmodifier onlyWhitelisted() {\n        require(isWhitelisted(msg.sender),\"Verify if it's in the whitelist\");\n        _;\n    }\n\t\n    function registerBreeder(address _address) public onlyOwner{\n        whitelist[_address] = true;\n        emit AddedToWhitelist(_address);\n    }\n\t\n    function removeBreeder(address _address) public  onlyOwner{\n        whitelist[_address] = false;\n        emit RemovedFromWhitelist(_address);\n    }\n\t\n    function isWhitelisted(address _address) public view returns(bool) {\n        return whitelist[_address];\n    }\n\t\n\tfunction declareAnimal(address _owner, string memory _specie, uint _age, uint256 _iDparent1, uint256 _iDparent2, string memory _name, string memory _color) public {\n        require(msg.sender == _owner, \"You are not declaring your animal\");\n\t\tanimal memory new_a = animal(_specie, _name, _age, 0, 0, _color, false, 0);\n\t\tanimals.push(new_a);\n\t\t\n        ownerAnimalCount[msg.sender]++;\n\t\tanimals.push(new_a);\n        animalToOwner[index] = msg.sender;\n        nameToId[_name] = index;\n        \n\t\temit NewAnimal(index, _specie, _name, _age, _iDparent1, _iDparent2, _color, false, 0);\n\t\t\n\t\tindex++;\n    }\n\t\n    function deadAnimal(uint256 Id_animal) public{\n\t\taddress owner = animalToOwner[Id_animal];\n        ownerAnimalCount[owner]--;\n\t\tdelete(animals[Id_animal]);\n\n        animalToOwner[Id_animal] = address(0);\n\n        emit DeadAnimal(Id_animal, animals[Id_animal].specie, animals[Id_animal].name, animals[Id_animal].age, animals[Id_animal].iDparent1, animals[Id_animal].iDparent2, animals[Id_animal].color, animals[Id_animal].fight, animals[Id_animal].fightPrice);\n    }\n\n\t\n\tfunction breedAnimal(address owner1, address owner2, uint256 Id_animal1, uint256 Id_animal2, string memory _name) public onlyWhitelisted{\n        require(animalToOwner[Id_animal1] == owner1, \"Verify if Owner 1 has Animal 1\");\n        require(animalToOwner[Id_animal2] == owner2, \"Verify if Owner 2 has Animal 2\");\n\n\t\temit BreedAnimal(Id_animal1, Id_animal2);\n\t\tdeclareAnimal(owner1, animals[Id_animal1].specie, 0, Id_animal1, Id_animal2, _name,  animals[Id_animal1].color);\n    }\n\n\tfunction proposeToFight(address owner, uint256 Id_animal, uint price) public onlyWhitelisted{\n        require(animalToOwner[Id_animal] == owner, \"Verify if Owner 1 has Animal 1\");\n\t\t\n        animals[Id_animal].fight = true;\n        animals[Id_animal].fightPrice = price;\n    }\n\t\n\tfunction agreeToFight(uint256 Id_animal, uint256 Id_animal2) public onlyWhitelisted{\n\t\trequire(animals[Id_animal].fight == true, \"Verify that first animal can fight\");\n        require(animals[Id_animal2].fight == true,\"Need to be able to fight\");\n        require(animals[Id_animal2].fightPrice == animals[Id_animal].fightPrice,\"Need to bet the same amount\");\n\t\t\n        animals[Id_animal].fight = false;\n\t\tanimals[Id_animal].fightPrice = 0;\n        animals[Id_animal2].fight = false;\n        animals[Id_animal2].fightPrice = 0;\n    }\n\t\n\t\n\tfunction createAuction(address owner, uint256 Id_animal, uint price) public{\n        require(animalToOwner[Id_animal] == owner, \"Verify if Owner 1 has Animal 1\");\n\t\t\n\t\tauction memory new_auct = auction(index_market, (block.timestamp), Id_animal, price, \"In progress\");\n        auctions.push(new_auct);\n        emit addAuction(index_market);\n\t\tindex_market++;\n    }\n\t\n\t//function BidOnAuction(uint public index_market){\n\t//}\n\t\n\t//function ClaimAuction(uint public index_market){\n\t//}\n\t\n}",
  "sourcePath": "C:\\Users\\Alexandre\\Desktop\\TD6-Blockchain-master\\contracts\\Animal.sol",
  "compiler": {
    "name": "solc",
    "version": "0.6.0+commit.26b70077.Emscripten.clang"
  },
  "schemaVersion": "3.0.23",
  "updatedAt": "2020-03-10T22:32:32.422Z",
  "networkType": "ethereum",
  "devdoc": {
    "methods": {
      "_burn(uint256)": {
        "details": "Internal function to burn a specific token. Reverts if the token does not exist.",
        "params": {
          "tokenId": "uint256 ID of the token being burned"
        }
      },
      "_safeMint(address,uint256)": {
        "details": "Internal function to safely mint a new token. Reverts if the given token ID already exists. If the target address is a contract, it must implement `onERC721Received`, which is called upon a safe transfer, and return the magic value `bytes4(keccak256(\"onERC721Received(address,address,uint256,bytes)\"))`; otherwise, the transfer is reverted.",
        "params": {
          "to": "The address that will own the minted token",
          "tokenId": "uint256 ID of the token to be minted"
        }
      },
      "approve(address,uint256)": {
        "details": "Approves another address to transfer the given token ID The zero address indicates there is no approved address. There can only be one approved address per token at a given time. Can only be called by the token owner or an approved operator.",
        "params": {
          "to": "address to be approved for the given token ID",
          "tokenId": "uint256 ID of the token to be approved"
        }
      },
      "balanceOf(address)": {
        "details": "Gets the balance of the specified address.",
        "params": {
          "owner": "address to query the balance of"
        },
        "returns": {
          "_0": "uint256 representing the amount owned by the passed address"
        }
      },
      "getApproved(uint256)": {
        "details": "Gets the approved address for a token ID, or zero if no address set Reverts if the token ID does not exist.",
        "params": {
          "tokenId": "uint256 ID of the token to query the approval of"
        },
        "returns": {
          "_0": "address currently approved for the given token ID"
        }
      },
      "isApprovedForAll(address,address)": {
        "details": "Tells whether an operator is approved by a given owner.",
        "params": {
          "operator": "operator address which you want to query the approval of",
          "owner": "owner address which you want to query the approval of"
        },
        "returns": {
          "_0": "bool whether the given operator is approved by the given owner"
        }
      },
      "isOwner()": {
        "details": "Returns true if the caller is the current owner."
      },
      "owner()": {
        "details": "Returns the address of the current owner."
      },
      "ownerOf(uint256)": {
        "details": "Gets the owner of the specified token ID.",
        "params": {
          "tokenId": "uint256 ID of the token to query the owner of"
        },
        "returns": {
          "_0": "address currently marked as the owner of the given token ID"
        }
      },
      "renounceOwnership()": {
        "details": "Leaves the contract without owner. It will not be possible to call `onlyOwner` functions anymore. Can only be called by the current owner.     * NOTE: Renouncing ownership will leave the contract without an owner, thereby removing any functionality that is only available to the owner."
      },
      "safeTransferFrom(address,address,uint256)": {
        "details": "Safely transfers the ownership of a given token ID to another address If the target address is a contract, it must implement {IERC721Receiver-onERC721Received}, which is called upon a safe transfer, and return the magic value `bytes4(keccak256(\"onERC721Received(address,address,uint256,bytes)\"))`; otherwise, the transfer is reverted. Requires the msg.sender to be the owner, approved, or operator",
        "params": {
          "from": "current owner of the token",
          "to": "address to receive the ownership of the given token ID",
          "tokenId": "uint256 ID of the token to be transferred"
        }
      },
      "safeTransferFrom(address,address,uint256,bytes)": {
        "details": "Safely transfers the ownership of a given token ID to another address If the target address is a contract, it must implement {IERC721Receiver-onERC721Received}, which is called upon a safe transfer, and return the magic value `bytes4(keccak256(\"onERC721Received(address,address,uint256,bytes)\"))`; otherwise, the transfer is reverted. Requires the _msgSender() to be the owner, approved, or operator",
        "params": {
          "_data": "bytes data to send along with a safe transfer check",
          "from": "current owner of the token",
          "to": "address to receive the ownership of the given token ID",
          "tokenId": "uint256 ID of the token to be transferred"
        }
      },
      "setApprovalForAll(address,bool)": {
        "details": "Sets or unsets the approval of a given operator An operator is allowed to transfer all tokens of the sender on their behalf.",
        "params": {
          "approved": "representing the status of the approval to be set",
          "operator": "operator address to set the approval"
        }
      },
      "supportsInterface(bytes4)": {
        "details": "See {IERC165-supportsInterface}.     * Time complexity O(1), guaranteed to always use less than 30 000 gas."
      },
      "transferFrom(address,address,uint256)": {
        "details": "Transfers the ownership of a given token ID to another address. Usage of this method is discouraged, use {safeTransferFrom} whenever possible. Requires the msg.sender to be the owner, approved, or operator.",
        "params": {
          "from": "current owner of the token",
          "to": "address to receive the ownership of the given token ID",
          "tokenId": "uint256 ID of the token to be transferred"
        }
      },
      "transferOwnership(address)": {
        "details": "Transfers ownership of the contract to a new account (`newOwner`). Can only be called by the current owner."
      }
    }
  },
  "userdoc": {
    "methods": {}
  }
}